:100000000C94E50B0C941D0C0C941D0C0C941D0C05
:100010000C941D0C0C941D0C0C941D0C0C941D0CBC
:100020000C941D0C0C941D0C0C942A190C94C71ED6
:100030000C94EC2A0C941D0C0C941D0C0C941D0CAF
:100040000C941D0C0C941D0C0C941D0C0C941D0C8C
:100050000C941D0C0C94111A0C941D0C0C941D0C7A
:100060000C941D0C0C941D0C0C941D0C0C941D0C6C
:100070000C941D0C0C941D0C0C941D0C0C941D0C5C
:100080000C941D0C0C941D0C0C941D0C0C941D0C4C
:100090000C941D0C0C941D0C0C941D0C0C941D0C3C
:1000A0000C941D0C0C941D0C0C941D0C0501098066
:1000B000A101850319012AB700150126B700950192
:1000C00075108100C0050C0901A101850419012AE0
:1000D000A002150126A002950175108100C005013E
:1000E0000906A1018506050719E029E71500250184
:1000F0009508750181020507190029EF15002501F2
:1001000095F075018102050819012905950575010C
:100110009102950175039101C00660FF0961A1017B
:100120000962150026FF00952075088102096315F4
:100130000026FF00952075089102C005010906A15F
:1001400001050719E029E7150025019508750181CA
:10015000029501750881010507190029FF15002680
:10016000FF0095067508810005081901290515008D
:100170002501950575019102950175039101C00056
:10018000000000000000000000000000000000006F
:10019000000000000000000000000000000000005F
:1001A000000000000000000000000000000000004F
:1001B00000008080000000000080404020202020BF
:1001C000101010100804020101020C3040800000E1
:1001D0000000000000F8F8F8F8000000000080803F
:1001E000000000000000000000000000000000000F
:1001F000000000000000000000000000808080007F
:1002000000000000000000000000000000000000EE
:1002100000000000000000000000000000000000DE
:1002200000000000000000000000000000000000CE
:100230001EE1000001010202818080000080800038
:1002400000000000000000008000303000000101CC
:1002500002040810204387070100B8BCBE9F5F5FFF
:100260004F4C20202020101010100808080808C447
:1002700004C404C402C202C2010101010000000062
:10028000000000000000000000000000000000006E
:10029000000000000000000000000000000000005E
:1002A00000000000000000000000000000000080CE
:1002B000700C030000180605989984437C41414066
:1002C000402021221211111109080808080404080D
:1002D000081010101010110F013D7CFCFCFCFCFC00
:1002E0003C0C00000000000000000000AAAAFFFF74
:1002F000C3BF7F037FBFC3FFFFAAAA0000000000A7
:1003000000000000000000000000000000000000ED
:10031000000000008080808040404040202020205D
:10032000101010100808080808040404040402034C
:1003300002020101010101010000000000000000B3
:1003400000000000000000000000000000000000AD
:100350000000000000000000000000000103030096
:100360000000000000000000000000000202071F63
:10037000071F071C071F071F0702020000000000DD
:10038000000000000000000000000000000000006D
:10039000000000000000000000000000000000005D
:1003A000000000000000000000000000000000004D
:1003B00000008080000000000080404020202020BD
:1003C000101010100804020101020C3040800000DF
:1003D000000000000000000000000000000000001D
:1003E000000000000000000000000000000000000D
:1003F000000000000000000000000000808080007D
:1004000000000000000000000000000000000000EC
:1004100000000000000000000000000000000000DC
:1004200000000000000000000000000000000000CC
:100430001EE10000010102020100000000808000B6
:10044000000000000000000080003030000001E1EA
:100450001A06093135018A7C000080808080404086
:10046000404020202020101010100808080808C460
:1004700004C404C402C202C2010101010000000060
:10048000000000000000000000000000000000006C
:10049000000000000000000000000000000000005C
:1004A00000000000000000000000000000000080CC
:1004B000700C0300000000000000000000010100BB
:1004C00040A021221211111109080808080404048F
:1004D0000404040202020101010100000000000006
:1004E000000000000000000000000000AAAAFFFFBA
:1004F000C3BF7F037FBFC3FFFFAAAA0000000000A5
:1005000000000000000000000000000000000000EB
:10051000000000008080808040404040202020205B
:10052000101010100808080808040404040402034A
:100530007A7A79797979393102020404080808084D
:100540000807000000303C7C7C7E7E7E7E00000040
:10055000000000000000000000000000000000009B
:100560000000000000000000000000000202071F61
:10057000071F071C071F071F0702020000000000DB
:10058000000000000000000000000000000000006B
:10059000000000000000000000000000000000005B
:1005A000000000000000000000000000000000004B
:1005B00000000000000000000080404020202020BB
:1005C00010101010100808040404083040800000C7
:1005D000000000000000000000000000000000001B
:1005E000000000000000000000000000000000000B
:1005F000000000000000000000000000808080007B
:1006000000000000000000000000000000000000EA
:1006100000000000000000000000000000000000DA
:1006200000000000000000000000000000000000CA
:1006300018648202020202020100000000808000B1
:1006400000000000000000008000303000C0C1C188
:10065000C20408102040800000008080808040405C
:10066000404020202020101010100808080808C45E
:1006700004C404C402C202C201010101000000005E
:10068000000000000000000000000000000000006A
:10069000000000000000000000000000000000005A
:1006A000000000000000000000000000000000C08A
:1006B000380403000000000000000C0C0C0D0100C9
:1006C00040A0212212111111090808080804040889
:1006D000081010101010110F0101000000000000A0
:1006E000000000000000000000000000AAAAFFFFB8
:1006F000C3BF7F037FBFC3FFFFAAAA0000000000A3
:1007000000000000000000000000000000000000E9
:100710000000000080808080404040402020202059
:100720001010101008080808080404040404020348
:100730000202010101010101020204040808080883
:10074000080700000000000000000000000000009A
:100750000000000000000000000000000000000099
:100760000000000000000000000000000202071F5F
:10077000071F071C071F071F0702020000000000D9
:100780000000000000000000000000000000000069
:100790000000000000000000000000000000000059
:1007A0000000000000000000000000000000000049
:1007B00000000000000000000080404020202020B9
:1007C00010101010100808040404083040800000C5
:1007D0000000000000000000000000000000000019
:1007E0000000000000000000000000000000000009
:1007F0000000000000000000000000008080800079
:1008000000000000000000000000000000000000E8
:1008100000000000000000000000000000000000D8
:1008200000000000000000000000000000000000C8
:1008300018648202020202020100000000808000AF
:1008400000000000000000008000303000C0C1C186
:10085000C20408102040800000008080808040405A
:10086000404020202020101010100808080808C45C
:1008700004C404C402C202C201010101000000005C
:100880000000000000000000000000000000000068
:100890000000000000000000000000000000000058
:1008A000000000000000000000000000000000C088
:1008B000380403000000000000000C0C0C0D0100C7
:1008C00040A0212212111111090808080804040887
:1008D000081010101010110F01010000000000009E
:1008E000000000000000000000000000AAAAFFFFB6
:1008F000C3BF7F037FBFC3FFFFAAAA0000000000A1
:1009000000000000000000000000000000000000E7
:100910000000000080808080404040402020202057
:100920001010101008080808080404040404020346
:100930000202010101010101020204040808080881
:100940000807000000000000000000000000000098
:100950000000000000000000000000000000000097
:100960000000000000000000000000000202071F5D
:10097000071F071C071F071F0702020000000000D7
:100980000000000000000000000000000000000067
:100990000000000000000000000000000000000057
:1009A0000000000000000000000000000000000047
:1009B0000000000000000000000080804040404037
:1009C000202020201008040202041860800000008B
:1009D0000000000000000000000000000000000017
:1009E0000000000000000000000000000000000007
:1009F0000000000000000000000000008080800077
:100A000000000000000000000000000000000000E6
:100A100000000000000000000000000000000000D6
:100A200000000000000000000000000000000000C6
:100A30003CC20101020204040201000000000000A7
:100A40000000000000000000000060600081828261
:100A5000840810204080000000008080808040409A
:100A6000404020202020101010100808080808C45A
:100A700004C404C402C202C201010101000000005A
:100A80000000000000000000000000000000000066
:100A90000000000000000000000000000000000056
:100AA00000000000000000000000000000000080C6
:100AB000701906000000000000001818181B030041
:100AC00040A02224141212120B0808080805050978
:100AD000091010101010110F01010000000000009B
:100AE000000000000000000000000000AAAAFFFFB4
:100AF000C3BF7F037FBFC3FFFFAAAA00000000009F
:100B000000000000000000000000000000000000E5
:100B10000000000080808080404040402020202055
:100B20001010101008080808080404040404020344
:100B3000020201010101010102020404080808087F
:100B40000807000000000000000000000000000096
:100B50000000000000000000000000000000000095
:100B60000000000000000000000000000202071F5B
:100B7000071F071C071F071F0702020000000000D5
:100B80000000000000000000000000000000000065
:100B90000000000000000000000000000000000055
:100BA0000000000000000000000000000000000045
:100BB00000008080000000000080404020202020B5
:100BC000101010100804020101020C3040800000D7
:100BD0000000000000000000000000000000000015
:100BE0000000000000000000000000000000000005
:100BF0000000000000000000000000008080800075
:100C000000000000000000000000000000000000E4
:100C100000000000000000000000000000000000D4
:100C200000000000000000000000000000000000C4
:100C30001EE10000010102020100000000808000AE
:100C400000000000000000008000303000C0C1C182
:100C5000C204081020408000000080808080404056
:100C6000404020202020101010100808080808C458
:100C700004C404C402C202C2010101010000000058
:100C80000000000000000000000000000000000064
:100C90000000000000000000000000000000000054
:100CA00000000000000000000000000000000080C4
:100CB000700C03000000000000000C0C0C0D010083
:100CC00040A0212212111111090808080804040883
:100CD000081010101010110F01010000000000009A
:100CE000000000000000000000000000AAAAFFFFB2
:100CF000C3BF7F037FBFC3FFFFAAAA00000000009D
:100D000000000000000000000000000000000000E3
:100D10000000000080808080404040402020202053
:100D20001010101008080808080404040404020342
:100D3000020201010101010102020404080808087D
:100D40000807000000000000000000000000000094
:100D50000000000000000000000000000000000093
:100D60000000000000000000000000000202071F59
:100D7000071F071C071F071F0702020000000000D3
:100D80000000000000000000000000000000000063
:100D90000000000000000000000000000000000053
:100DA0000000000000000000000000000000000043
:100DB00000000000000000000080404020202020B3
:100DC00010101010080804020202043840800000CD
:100DD0000000000000000000000000000000000013
:100DE0000000000000000000000000000000000003
:100DF0000000000000000000000000008080800073
:100E000000000000000000000000000000000000E2
:100E100000000000000000000000000000000000D2
:100E200000000000000000000000000000000000C2
:100E30001CE20101020202020100000000808000A9
:100E400000000000000000008000303000C0C1C180
:100E5000C204081020408000000080808080404054
:100E6000404020202020101010100808080808C456
:100E700004C404C402C202C2010101010000000056
:100E80000000000000000000000000000000000062
:100E90000000000000000000000000000000000052
:100EA00000000000000000000000000000000080C2
:100EB000700C03000000000000000C0C0C0D010081
:100EC00040A0212212111111090808080804040881
:100ED000081010101010110F010100000000000098
:100EE000000000000000000000000000AAAAFFFFB0
:100EF000C3BF7F037FBFC3FFFFAAAA00000000009B
:100F000000000000000000000000000000000000E1
:100F10000000000080808080404040402020202051
:100F20001010101008080808080404040404020340
:100F3000020201010101010102020404080808087B
:100F40000807000000000000000000000000000092
:100F50000000000000000000000000000000000091
:100F60000000000000000000000000000202071F57
:100F7000071F071C071F071F070202000000005081
:100F80004F52514A4D4B4E2A4C2F30B6B7ABACBBEB
:100F9000BCA9AABDBE0D0E0B0F1A05080509050751
:100FA0001811130408120C00DA0281FFD9F1DB20BA
:100FB000A4A62EAF00A0C0D30000A1C8D30000AEED
:100FC000D580A81F408D142000FD377A585A0000A4
:100FD00004E6D6B4460200210116000000742FE595
:100FE000A3E0010500AA5D003D8889C65436C317F9
:100FF0004FE4D4201442FD004CB881A1EBC56098A9
:101000003D64032DCF41150E53BAB80C7A1035024A
:10101000F4C7C0873C401FDCEE8A78829BF11297B0
:10102000EC019B9ABDA8977AF42257C3B1E60C2C29
:10103000BDDFCEDA86942738B17A8A00BC90A1EC65
:10104000024926129725BC2BA94B02941E77074410
:10105000CEB80CB6D4F57E983CE549072963D94053
:10106000BB9D40ECD1255D523A39A74061166A2CF0
:101070008B16CDE7F63D56B511AF46F61421E5DDEA
:1010800053871DD61D5CF08819E990B801AE135C3A
:101090007B00000000ADFC63A576B264F30001C6DE
:1010A00001860200004D3D32F2B1C467FB02000030
:1010B000000004595A00AF00AEA800000000002450
:1010C00000250026002100220023001E001F002012
:1010D000002C00000000002C002C002C002C002C08
:1010E000002C002C002C002C002C00000000002CF8
:1010F000002C002C002C002C002C002C002C002C90
:10110000002C00000000002C002C002C002C002CD7
:10111000002C002C002C002C00AA00A900010001CA
:1011200000010001000100010009025B0003010051
:10113000A0FA0904000001030101000921110100C6
:10114000012244000705810308000109040100028F
:10115000030000000921110100012222000705827D
:101160000320000107050303200001090402000118
:1011700003000000092111010001226D0007058410
:10118000032000011201000200000008283749294D
:101190000100010203011C037600690061006C007C
:1011A0003A0066003600340063003200620033000B
:1011B00063000000120342006F006E0067006F00C2
:1011C00050006100640000000C034C006C00330010
:1011D0006D0061000000040309040000000000002D
:1011E00000000000000000000000000000000000FF
:1011F00000000000000000000000000000007E0F62
:1012000000D4FFFFFFC700000078000000000000CE
:1012100000002A2B28000000000000000000000051
:10122000000000000029000000002C1E34202122B4
:1012300024342627252E362D3738271E1F2021221D
:10124000232425263333362E37381F040506070896
:10125000090A0B0C0D0E0F10111213141516171886
:10126000191A1B1C1D2F3130232D350405060708C4
:10127000090A0B0C0D0E0F10111213141516171866
:10128000191A1B1C1D2F3130354C07087F08070029
:101290003E5B4F5B3E003E6B4F6B3E001C3E7C3E18
:1012A0001C00183C7E3C18001C577D571C001C5E1F
:1012B0007F5E1C0000183C180000FFE7C3E7FF003A
:1012C000001824180000FFE7DBE7FF0030483A066B
:1012D0000E00262979292600407F05050700407F5A
:1012E00005253F005A3CE73C5A007F3E1C1C080085
:1012F000081C1C3E7F0014227F2214005F5F005FE9
:101300005F0006097F017F00006689956A006060C2
:101310006060600094A2FFA2940008047E040800AC
:1013200010207E20100008082A1C0800081C2A082B
:1013300008001E10101010000C1E0C1E0C0030387F
:101340003E383000060E3E0E060000000000000091
:1013500000005F000000000700070000147F147FFA
:101360001400242A7F2A12002313086462003649DD
:1013700056205000000807030000001C2241000016
:101380000041221C00002A1C7F1C2A0008083E087D
:1013900008000080703000000808080808000000FD
:1013A000606000002010080402003E5149453E00E4
:1013B00000427F4000007249494946002141494DA1
:1013C00033001814127F10002745454539003C4A68
:1013D0004949310041211109070036494949360080
:1013E000464949291E000000140000000040340056
:1013F00000000008142241001414141414000041C9
:10140000221408000201590906003E415D594E00B0
:101410007C1211127C007F49494936003E4141410E
:1014200022007F4141413E007F49494941007F09F7
:10143000090901003E41415173007F0808087F00FF
:1014400000417F4100002040413F01007F081422FD
:1014500041007F40404040007F021C027F007F042B
:1014600008107F003E4141413E007F090909060006
:101470003E4151215E007F0919294600264949490C
:10148000320003017F0103003F4040403F001F2026
:1014900040201F003F4038403F00631408146300A1
:1014A0000304780403006159494D4300007F414122
:1014B0004100020408102000004141417F00040265
:1014C00001020400404040404000000307080000C3
:1014D0002054547840007F28444438003844444421
:1014E0002800384444287F00385454541800000819
:1014F0007E09020018A4A49C78007F0804047800E8
:1015000000447D4000002040403D00007F10284402
:10151000000000417F4000007C04780478007C08D3
:1015200004047800384444443800FC18242418008B
:1015300018242418FC007C0804040800485454545F
:10154000240004043F4424003C4040207C001C2034
:1015500040201C003C4030403C00442810284400FF
:101560004C9090907C004464544C440000083641F8
:101570000000000077000000004136080000020172
:10158000020402003C2623263C000000000000006C
:10159000404040F0F8F8FF38FFF8F83FF8F8FF381F
:1015A000FFF8F8F040404000000000000080C0C09C
:1015B000C0800000C0C08000000080C0C000C0C06B
:1015C000000080C0C00000000000C0C0C0C0C0005B
:1015D000C0C000000000000000000000000000008B
:1015E00000000000000000000000000000000000FB
:1015F00000000000000000000000000000000000EB
:10160000000000000000000000C0F0F8FC3E1E06D4
:10161000010000007F4141417F007F4141417F0047
:101620000080C0E07E5B4F5BFEC00000C000DCD7E6
:10163000DEDEDED7DC00C00000000000000000009D
:10164000000000000000000000000000000000009A
:10165000494949FFFFFFFFE0DFBFBF00BFBFDFE039
:10166000FFFFFFFF49494900000000001F3F606085
:10167000E0BF1F007F7F071E381E077F7F007F7F30
:101680000E1F3B716000000000007F7F0C0C0C00FF
:101690007E7E007F7E0303007F7E03037E7E030346
:1016A0007F7E000F3E703C063C703E0F00327B494F
:1016B000493F7E007F7E0303001E3F69696F26005D
:1016C000000000000000000000030F1F3F3C787086
:1016D000600000007F4141417F007F4141417F0028
:1016E000307B7F7830202030787F3B0003000F7FF5
:1016F0000F0F0F7F0F00030000000000000000002C
:1017000000000000000000000000000000000000D9
:10171000010101070F0F7F0F7F0F0F7E0F0F7F0F4C
:101720007F0F0F0701010100000000000000000012
:1017300000010100000000000000000000000000A7
:101740000000000000000000000000000000000099
:101750000000000000000000000000000000000089
:101760000000000000000000000000000000000079
:101770000000000000000000000000000000000069
:101780000000000000000000000000000000000059
:101790000000000000000000000000000000000049
:1017A0000000000000000000000000000000000039
:1017B0000000000000000000000000000000000029
:1017C0000000000000000000000011241FBECFEF49
:1017D000DAE0DEBFCDBF04B603FE18C08091660517
:1017E00090916705A0916805B09169058730904B8D
:1017F000A740B04B59F410926605109267051092FD
:10180000680510926905E0E0F8E3099511E0A0E0B1
:10181000B1E0E2E8FBE602C005900D92A838B107FE
:10182000D9F725E0A8E8B1E001C01D92A636B207BD
:10183000E1F70E94132B0C9472350C940000CF93A7
:10184000DF934091640550916505445653409A01D9
:101850003E5F21303240C0F020E032E0241B350BE7
:101860006091620370916303FC01CA01240F351F6C
:10187000C1E0D0E08217930750F070936303609348
:101880006203DF91CF91089520E032E0E9CF4491E7
:10189000DC01AC59BC4F5C91451781F04C93AC0115
:1018A000A5E056954795AA95E1F7DE0102C0AA0F7B
:1018B000BB1F4A95E2F7AD016A2B752B0196319655
:1018C000D9CFE0915103F0915203309739F002845F
:1018D000F385E02D309711F060E209950895E8ED69
:1018E000F0E080818E7F80831092E2001092DA0017
:1018F0001092E100A0EEB0E08C9181608C93808129
:101900008F77808319BCA7EDB0E08C918E7F8C938C
:1019100080818F7E808310923C0308952091E400A3
:101920003091E50095E6A9012091EC00822F8170AD
:1019300020FF06C08091E80080FF06C080E0089587
:101940002091E80022FD1AC080914703882389F086
:10195000853089F08091EB0085FD0FC02091E40077
:101960003091E50042175307F9F29150E1F684E017
:10197000089582E0089583E0089581E008958091BC
:10198000490387FF13C08091E80082FF06C0809161
:10199000E8008B778093E80004C0809147038111B1
:1019A000F2CF0895809147038823D9F38091E8000E
:1019B00080FFF8CF8091E8008E77ECCF982F90933E
:1019C000E900242F762F50E0891731F07091EC0058
:1019D0002091ED005091F00021FD07C09F5F9730EE
:1019E00071F78093E90081E008953091EB003E7F2C
:1019F0003093EB003091ED003D7F3093ED0030915E
:101A0000EB0031603093EB007093EC002093ED001D
:101A10005093F0002091EE0027FDE0CF80E0089584
:101A2000B0E0A0E0E6E1FDE00C943E34C8EDD0E08B
:101A300088818F7E8883E7EDF0E0808181608083FC
:101A400084E082BF81E080933C0388818E7F88831D
:101A500002EE10E0F80110821092DA0081EEC82E3A
:101A6000D12CF601108288818F77888388818068E5
:101A7000888388818F7D888319BC109247031092D8
:101A80004803109246031092450390EEE92EF12C84
:101A9000F70180818B7F808388818160888342E029
:101AA00060E080E08BDFF60180818E7F8083F8012B
:101AB000808181608083808188608083F70180815C
:101AC0008E7F8083888180618883CDB7DEB7E8E030
:101AD0000C945A34FC0180914F0390915003861767
:101AE0009707A0F06115710529F49091E8009E77A1
:101AF0009093E80090E06115710551F4911108C0D0
:101B00008091E80082FF34C080E00895BC01F2CFEC
:101B1000809147038823C1F18530C1F18091E800AD
:101B200083FD30C08091E80082FDEACF8091E8001B
:101B300080FFE1CF8091F3002091F200382F6115F2
:101B4000710519F02830310558F091E02830310541
:101B500009F090E02091E8002E772093E800CBCFA9
:101B600081918093F100615071092F5F3F4FE7CF62
:101B700080914703882341F0853041F08091E8004F
:101B800083FFBECF81E0089582E0089583E0089549
:101B900008952FB7F89460913803709139038091BC
:101BA0003A0390913B032FBF089580911601089549
:101BB000909117019130D1F49091580397FF16C07E
:101BC000E82FE695E695E695EE31E0F4F0E0EE5686
:101BD000FE4F282F277081E090E001C0880F2A95E2
:101BE000EAF780959281892382830895ECE8F1E0F9
:101BF0009191891303C0DF0111971C9291E0E239A2
:101C0000F907B1F70895909117019130C1F49091BF
:101C1000580397FF14C0E82FE695E695E695EE3158
:101C2000F8F4F0E0EE56FE4F877021E030E001C09E
:101C3000220F8A95EAF78281822B82830895ACE88D
:101C4000B1E0EFEF90E02D91821751F0EF3F19F4E2
:101C5000211101C0E92F9F5F9630A9F7EF3F09F4EA
:101C600008950E2E000CFF0BE657FE4FE6CFA3E0C3
:101C7000B0E0EDE3FEE00C94443420913503309164
:101C8000360328173907B1F0909336038093350354
:101C9000E0915103F0915203309761F00084F18597
:101CA000E02D309739F024E029839B838A83CE018D
:101CB000019609952396E2E00C946034A3E0B0E02D
:101CC000E4E6FEE00C944434209133033091340375
:101CD00028173907B1F09093340380933303E091D0
:101CE0005103F0915203309761F00084F185E02DAB
:101CF000309739F023E029839B838A83CE010196B4
:101D000009952396E2E00C946034E0915103F09140
:101D10005203309739F00190F081E02D309711F0A7
:101D20000995089580E008954115510511F0FA01D3
:101D300009950895DC0130E020E0FD01E20FF31F7A
:101D4000E491E41307C0E1E0E227EA0FFB2FF11D65
:101D5000849108952F5F3F4F261778F380E0089510
:101D600090912E0389029001112437FF03C08093C4
:101D70002E0308952F3731051CF4980F90932E03EE
:101D8000089521E3611123E383B190E02F7002C035
:101D9000959587952A95E2F78170089521E3611161
:101DA00023E334B12F7081E090E001C0880F2A95C1
:101DB000EAF7982F9095932394B995B1892B85B91B
:101DC000089590912403E92FF0E0409125039F01AD
:101DD0002F5F3F4F2370332742171306A9F0EA5DA8
:101DE000FC4F282F2F7780818078822B60FB87F92A
:101DF00080839F5F937090932403809122038F5F71
:101E00008093220381E0089580E00895462B22FF0D
:101E10000FC0982F9F7082958F70892B962F9F707F
:101E200062956F70692B942F9F7042954F70492B6C
:101E3000982F9623961309C050E04095509590E056
:101E40004823592381E0452B09F080E081700895F3
:101E5000811521E0920798F08115E0E29E0728F0B5
:101E60008115F0E59F0750F00895392F94FF02C0C7
:101E70003295307FFB012081232B20839927089501
:101E8000E4E7F2E090E080E068E072E24CE252E2E7
:101E90002FE731E277836683518740873387228734
:101EA00097878687019670968430910599F70895F3
:101EB00081152CE7920741F420912B0330912C03DC
:101EC000232B11F490E080E0089580E00895F894C9
:101ED000E82FE295EF70F0E031A1282F2F7081E01C
:101EE00090E001C0880F2A95EAF7982F90959323E8
:101EF00091A392A1892B82A378940895909158037D
:101F000092FF10C041E0282F2471243009F040E0F6
:101F100031E0282F2871283009F030E0431711F004
:101F20002CE0822793FF10C041E0282F2471243138
:101F300009F040E031E0282F2871283109F030E025
:101F4000431711F02CE082273091590330FF10C065
:101F500051E0282F2171213009F050E041E0282F75
:101F60002871283009F040E0541711F029E0822749
:101F700031FF10C041E0282F2171213109F040E0EC
:101F800031E0282F2871283109F030E0431711F093
:101F900029E0822794FD877E089582389105B9F162
:101FA000B0F48133910509F47DC048F4893291057C
:101FB00009F46DC08A32910509F47BC00895853318
:101FC000910509F45FC08933910509F10895833EB5
:101FD0009105D9F138F4803E910529F1823E9105B1
:101FE00079F10895863E9105D9F1873E910509F46E
:101FF0003EC0843E910541F52091590321FF24C044
:102000008091580384FD19C087EE90E008952091D7
:102010005803237009F05AC02091590323FF14C0BC
:1020200089E290E008952091580320FD38C0309156
:10203000590330FF09C024FF43C090E080E00895B9
:102040002091580322FDF7CF08952091580322FDD7
:102050003AC03091590330FD39C024FFF5CFEDCFA0
:102060002091580323FFF0CF24FDE7CFCDCF20915F
:10207000580323FD2EC03091590331FFEECF84EE7B
:1020800090E008952091580325FFDECFC9CF20911D
:10209000580325FD21C02091590323FFD5CF89E3A3
:1020A00090E0D2CF2091580326FFCECF8AE290E075
:1020B00008952091580326FFC7CF81E390E008954B
:1020C00083EE90E0089582EE90E0089580EE90E037
:1020D000089586EE90E0089585E390E008951F93BB
:1020E000CF93DF935ADFEC01C11582E5D807F0F5F5
:1020F000C11590E5D90708F0D4C0C03ED10520F540
:10210000CD3CD10508F077C0C83AD10578F4C53A7E
:10211000D10508F068C0C130D10519F1209709F147
:10212000C430D105F0F4D0E0C0E01BC0C33CD10501
:10213000D0F7C85AD0E0CC0FDD1FCC5DDE4F099040
:10214000D881C02DD4640DC0C11580E2D80708F035
:10215000C2C0C11591E0D90708F04FC0C83ED105F3
:1021600010F7CE01DF91CF911F910895C03882E51D
:10217000D807B0F4C03692E5D90708F076C0C0346D
:1021800082E5D80708F05CC0C03292E5D90708F4B0
:1021900043C0CF71D0E0DC2FCC27C16FD06AE1CF34
:1021A000C03C82E5D80770F48C2F8F71C03AD245BD
:1021B00008F470C0A3DEC82FD0E0DC2FCC27CC27DA
:1021C000DF71CFCFC03E82E5D80708F0ACCF9E01CB
:1021D00043E0220F331F4A95E1F7207E3327CE01DB
:1021E000837099274CC0C55AD0E0CF5DDE4FC881BF
:1021F000D0E0D064B6CFD065B4CF8D2F7FDE182F5E
:10220000CE019927CADEC12FD0E0DC2FCC27CC2706
:10221000DF71C82BD92BA5CF2C2F2695269590E2C0
:10222000299F900111248C2F8370C1E0D0E002C05F
:10223000CC0FDD1F8A95E2F7C22BD32BDD6891CF3F
:102240002C2F26952695277080E2289F9001112437
:102250008C2F8370C1E0D0E002C0CC0FDD1F8A95C7
:10226000E2F7C22BD32BDC687CCF2C2F269526954A
:10227000277090E2299F900111248C2F8370C1E078
:10228000D0E002C0CC0FDD1F8A95E2F7C22BD32B22
:10229000DA6867CFC82FD0E0DC2FCC27C46FD06AB4
:1022A00060CF8C2F8F712ADE95E0D695C7959A95D1
:1022B000E1F7CF70D0E0DC2FCC27282F30E084FF6F
:1022C00006C084E0220F331F8A95E1F73327C22B23
:1022D000D32BD06946CFCE0199275FDEEC0141CFE9
:1022E00080910302882331F01092030210920202BF
:1022F0001092010208958095909130039823909355
:1023000030030895A82FA77023E0969587952A9506
:10231000E1F7FC01EE0FFF1FE80FF91FE60FF71FB3
:1023200050E040E080E0219130E00A2E02C0369576
:1023300027950A94E2F721703327042E01C0220F5B
:102340000A94EAF7822B4F5F5F4F4330510559F7EC
:102350000895903FB9F0943070F4833098F4282FAA
:1023600030E063ED71E0A901E3E09E9F400D511D57
:102370001124CA01C7CF9C5F923020F460ED71E058
:1023800090E0F8CF80E00895262F277091E001C0FB
:10239000990F2A95EAF723E0769567952A95E1F754
:1023A000FB01EE0FFF1FE60FF71FE40FF51F50E0D4
:1023B00040E0682F70E08191DF0111979B01042EAE
:1023C00002C0369527950A94E2F7217021952827B7
:1023D000292328272C934F5F5F4F4330510559F72E
:1023E0000895282F862F903F71F0943068F42330A1
:1023F00050F4622F70E023E0929F600D711D112454
:1024000043ED51E0C1CF08959C5F9230E0F7622F19
:1024100070E040ED51E0F6CF80930E020895909168
:102420000E0221E030E0F90101C0EE0F8A95EAF7D3
:10243000D90102C0AA0FBB1F6A95E2F7EA2B01C0BF
:10244000220F4A95EAF7892F8E23E81303C0292B20
:10245000822FE2CF20952923FBCF21E030E001C07D
:10246000220F8A95EAF7209580910E028223D4CF1D
:1024700090915A03892F8D7F80935A03292F2570BD
:1024800081F4981771F09091590392FF0AC08695D4
:1024900086958695E2DF10925A03109257031092A8
:1024A0005603089521E030E001C0220F8A95EAF733
:1024B00080910E02822BB0CF0F931F93CF9301E038
:1024C00010E0082E01C0000F0A94EAF7C0912D0316
:1024D0009C2F9023A9F490915A03969596959695E2
:1024E000891306C010925A03109257031092560394
:1024F000D9DFC027C0932D03CF911F910F9108956D
:10250000ACDFF7CF80930D020895982F92959F70BE
:1025100011F0892F94E0282F2695269511F09E5FC3
:10252000822F869509F09F5F892F089590E0811191
:1025300002C0892F08952FEF280F82239F5FF7CFC6
:102540009C013A9521153F4150F5FC01EE27F170B1
:10255000BC0166277270AC01442754709C0122278D
:10256000387094FF0EC080E1EF2B09F480E0672BF8
:1025700009F08062452B09F08064232B89F0806884
:10258000089581E0EF2B09F480E0672B09F0826069
:10259000452B09F08460232B19F08860089580E0B2
:1025A00008952F923F92CF93DF93E1018091F4023F
:1025B00081111CC0E881F981818590E0019665E078
:1025C00070E00E9477348187E881F981218584E079
:1025D00090E0821B910997FF03C091958195910925
:1025E000982F8827990F81589A4F29D9E881F98126
:1025F000808590E00196817099278087E881F98134
:10260000208581E090E0821B910997FF03C091959E
:1026100081959109982F8827990F81589E4F0FD93E
:10262000DF91CF913F902F900895CF93DF93C0918A
:102630006405D09165058A30B9F420915B03CE0121
:1026400084569340622F70E00E942034281B822F12
:1026500066E00E946B34C82FC15018F4DF91CF910F
:10266000089580E2E2DFF8CF8D30E9F4C456D3401C
:1026700020915B03622F70E0CE010E942034281B62
:10268000822F9E01280F311D2115324018F080E065
:10269000D0E0C0E0C80FD11DCC59DC4FD093650508
:1026A000C0936405DBCF96E0FE01ACE5B3E001909A
:1026B0000D929A95E1F7803E08F458C086E0FE013D
:1026C00011928A95E9F7C0916405D091650546E0BD
:1026D00050E0BE018CE593E00E94FD349E0124563B
:1026E0003340892B41F1C90145E0969587954A957C
:1026F000E1F741E050E0BA0102C0660F771F8A950A
:10270000E2F7CB016091620370916303862B972BF4
:10271000B9016B5F7F4FE5E076956795EA95E1F744
:1027200002C0440F551F6A95E2F7842B952B9093B6
:102730006303809362032A5F3F4F40915B03642FE2
:1027400070E0C9010E942034481B463010F4240F69
:10275000311D211572E0370710F030E020E02C59D0
:102760003C4F309365052093640578CFF6E08F9F4A
:10277000B001112466577D4E46E050E0CE010E9424
:10278000F434A1CF0F931F93CF93DF938B01EA0112
:1027900090914703943059F58093E9008FEF909121
:1027A000E800815095FD06C095ED9A95F1F700007F
:1027B0008111F5CF8091E80085FF19C0AFD8811154
:1027C00011C08091E80085FD06C08091E8008E77F9
:1027D0008093E800F3CFF80181918F018093F1009D
:1027E000219779F78091E8008E778093E800DF9158
:1027F000CF911F910F91089543E050E0BC0184E018
:10280000C1CF40E250E0BC0184E0BCCFCF93DF9366
:10281000EC0148E050E0BC0181E0B4DF88E0FE015B
:10282000ADE3B3E001900D928A95E1F7DF91CF918E
:102830000895603229F440E250E0BC0182E0A2CF6A
:10284000089581E08093E00080E28093D8001092A8
:10285000C9008FE19EE40197F1F700C0000087E016
:1028600090EBDC018093660590936705A093680563
:10287000B093690588E19CE00FB6F894A895809321
:1028800060000FBE90936000FFCF0F931F93CF9314
:10289000DF93142F022F8430F0F461111CC094E0F8
:1028A000899FE0011124C757DF4F82E090E0442365
:1028B00011F090E080E0632F8C0F9D1F0E943D354A
:1028C00083E090E0112311F081E090E0602F8C0F05
:1028D0009D1F0E943D35DF91CF911F910F9108956B
:1028E0001F93CF93DF93122F8430E0F46430D0F441
:1028F0004330C0F4C42FD0E0CC0FDD1F96E0699FB9
:10290000C00DD11D112498E1899FC00DD11D112446
:10291000632FCE0189960E943D35612FCE018A96A4
:102920000E943D35DF91CF911F91089585E290E09F
:102930000E942135863C89F486E290E00E94213590
:102940008C3F59F487E290E00E94213591E08F3C62
:1029500009F090E0892F8170089580E0FCCF9B0101
:102960002F503F4F6F3073408105910518F4C90116
:102970000C94213580E00895FF920F931F93CF931D
:10298000DF93F42E843040F5611126C024E0829F4D
:102990008001112407571F4F82E090E0442311F07B
:1029A00090E080E0800F911F0E942135C82FD0E079
:1029B000DC2FCC2783E090E0FF2011F081E090E055
:1029C000800F911F0E9421359E01282BC901CDB790
:1029D000DEB7E5E00C945D3490E080E0F8CF0F9333
:1029E0001F93CF93DF93843030F5643020F543306C
:1029F00010F5C42FD0E0CC0FDD1F26E0629FC00D84
:102A0000D11D112438E1839FC00DD11D1124CE01A9
:102A100089960E942135082F10E0102F0027CE0143
:102A20008A960E9421359801282BC901DF91CF9108
:102A30001F910F91089590E080E0F8CF462F672F07
:102A40002091620230916302232BB9F4703F39F474
:102A5000403F99F48091640290916502089574302A
:102A600028F4433050F4843040F4B9CF7D3F41F432
:102A7000411103C041E0843048F090E080E00895C7
:102A80007C3FD9F74111F9CF8430B8F760E074CFBB
:102A9000CF92DF92FF920F931F93CF93DF936C013E
:102AA00000910E0280910D02082BC3E0D0E010E0EF
:102AB000FC2EC8010C2E02C0959587950A94E2F76A
:102AC00080FD0CC02197A0F7F12C8F2DDF91CF91C5
:102AD0001F910F91FF90DF90CF900895B6018C2F3A
:102AE000ADDFFDDA019771F3F0CFA6E0B0E0EBE7E0
:102AF000F5E10C9443349C01FC0186819781009799
:102B0000C9F486E0DE01119601900D928A95E1F7F5
:102B1000F901258189819A81222381F0662371F050
:102B2000B7DF182F682F89819A815BDC69817A81F0
:102B3000812F84DF2696E3E00C945F340ADC182FA3
:102B4000F5CFA0E1B0E0E7EAF5E10C943634CE0130
:102B500001965C0180E1F50111928A95E9F702E3A3
:102B600010E09FE0492E93E0592E612C712C21EF4B
:102B7000822E912C0150110921F46096E0E10C9411
:102B800052346201F1E14F165104610471042CF0DA
:102B900080E1C82ED12CE12CF12CA601B401C50195
:102BA0000E942E358C0C9D1C0D2C000CEE08FF088D
:102BB0004C185D086E087F08DDCFAAE0B0E0E3EEB8
:102BC000F5E10C943734C0902B03D0902C0381E0B6
:102BD00090E090932C0380932B0399E1E92E91E1EF
:102BE000F92E29EBA22E20E1B22E10E0450100E0E3
:102BF00014C0F30125913491452D602F812F70DE93
:102C000082E0680E711C5394E3E05E12F2CFF6E0AE
:102C10008F0E911C0F5F043019F03401512CE9CF55
:102C2000F7012591349141E060E0812F2EDEF7011C
:102C300032962591349140E060E0812F26DE84E0D9
:102C4000E80EF11C1F5FE8E1AE0EB11C143009F074
:102C5000CDCF1A8219821C821B821E821D82188689
:102C60001F8288EC90E09A8789874AE050E069E902
:102C700070E08E010F5F1F4FC8010E945B354AE074
:102C800050E063EA70E0C8010E945B354AE050E022
:102C90006DEA70E0C8010E945B354AE050E067EBE6
:102CA00070E0C8010E945B3586E0F80111928A95B8
:102CB000E9F781ECE82EF12C46E050E0B701C801BD
:102CC0000E945B35F6E0EF0EF11C81EFE816F1048F
:102CD00099F7D0922C03C0922B032A96EFE00C9424
:102CE00053346FEF85E290E00E943D356FEF86E24E
:102CF00090E00E943D356FEF87E290E00E943D3505
:102D000060E088E290E00E943D3557DF1ADF66EC14
:102D100085E290E00E943D356CEF86E290E00E94F3
:102D20003D356FEC87E290E00C943D359B0184309B
:102D300070F49AE0899FB001112467567F4F4AE0F2
:102D400050E0C9010E94113590E080E008958FEFB6
:102D50009FEF0895A6E0B0E0E0EBF6E10C943F347D
:102D600004EB12E081ECE82EF12C98E0D92E46E03D
:102D700050E0B701CE0101960E941135F8018D2D6A
:102D800011928A95E9F7B8016C5F7F4F89819A812A
:102D90005FD8F80191838083B8016B5F7F4F8B818F
:102DA0009C8156D8F801938382838D8186838E819E
:102DB0008783F6E0EF0EF11C085F1F4F81EFE816E6
:102DC000F104A9F62696E7E00C945B34AB0124E607
:102DD00030E0BC0188E70E949B3321E0892B09F099
:102DE00020E0822F0895809120039091210391117A
:102DF00003C091E089270895882361F062E070E0C4
:102E000087EB90E1E3DF811103C0809120030895F7
:102E10001092200380912003ECCFCF93C091200328
:102E2000809121038823C9F00E94C90D605A754121
:102E30008F4F9F4F60931C0370931D0380931E035D
:102E400090931F03C11107C062E070E085EB90E131
:102E5000BDDF811105C0C09120038C2FCF91089553
:102E600081E080932003F7CFA2E1B0E0EAE3F7E14D
:102E70000C94343480912103882309F4C9C084E67A
:102E800093E09093650580936405CE0186969C87B8
:102E90008B871D821E821F82188619821A821B82CE
:102EA0001C821A861986988B8F8785979E878D87B7
:102EB0008091F402882309F4AFC0AFDFCD80DE80BB
:102EC000EF80F8840E94C90D6C197D098E099F0955
:102ED000693C71058105910550F00E94C90D6D8313
:102EE0007E838F839887CE010D961C015ADB0E944A
:102EF000C90D69837A838B839C8384E693E09093E6
:102F0000650580936405C090F40280910D018C11D9
:102F100005C08091F902803309F44AC0C0920D01C6
:102F200080E38093F902D12CF12CE12C1092F8026D
:102F3000C701B6012AE030E040E050E00E948A3448
:102F4000605D603331F0C114D104E104F10409F48F
:102F500060E36093F70260E3FAE0CF16D104E10486
:102F6000F10490F06AE0862E912CA12CB12CC701BF
:102F7000B601A50194010E948A34CA01B901A501D4
:102F800094010E948A34605D6093F60224E6C216C2
:102F9000D104E104F10408F463C0C701B60124E6DA
:102FA00030E040E050E00E948A34205D2093F5023A
:102FB00005EF12E0D8010D900020E9F78D010150D6
:102FC000110955EFE52E52E0F52EE016F10608F452
:102FD00049C08091620390916303892B09F047C037
:102FE000809120038823A1F00E94C90D00911C0349
:102FF00010911D0320911E0330911F03601B710B64
:10300000820B930B6F3F7F4F8F4F9F4708F4EBDE90
:103010006296E2E10C9450340E94C90D61367A4EFA
:103020008105910510F0DFDE68CFCD80DE80EF8076
:10303000F8840E94C90D6C197D098E099F09693CAD
:1030400071058105910508F458CF0E94C90D6D8363
:103050007E838F839887FE013D961F01A2DA4DCFB4
:1030600020E3A4CFF70181917F01DFDAAECF809119
:103070002103882309F4B4CF80911B038111B0CFC1
:10308000CCDE20916203309163032115310509F4F0
:10309000A7CF80E041E050E0082F10E07A01082E31
:1030A00002C0EE0CFF1C0A94E2F7B70162237323FF
:1030B000672B11F48F5FF0CF90911A0390FF9CC0A3
:1030C000880F880F880F8093100110921301895F79
:1030D0008093110183E08093140124E630E047E0FF
:1030E00050E06EE071E088E70E945C33892B09F0C4
:1030F00077CFA80125E0440F551F2A95E1F780916D
:103100001A0380FF8BC0EAEFF2E080E2DF011D923C
:103110008A95E9F7E5E7F1E0FA8BE98B01E711E041
:1031200089E7A82E81E0B82E97E0392E44244394F5
:10313000A989BA898D91BA8BA98BF80121918F0148
:10314000240F352F311D2C593C4FE82FF0E0E6506D
:10315000FD4F90E080E0632C681A742C082E01C0AB
:10316000770C0A94EAF76901812CD6019D906D01D4
:103170009720662D68196770562E062E000C770B67
:10318000B92D01C0BB0F5A94EAF771956195710989
:103190006770772701C096946A95EAF79B2A608149
:1031A000562E59285082839468E08612DECF01960D
:1031B00031968830910579F689899A89A816B906D9
:1031C00009F0B6CF04E610E020E230E04AEF52E02A
:1031D00060E488E70E94DC33892B09F001CFE0949A
:1031E000F0948091620390916303E822F922F092B7
:1031F0006303E0926203F4CE8295880F8076809319
:10320000100198013695279536952795209313013F
:10321000815E80931101209314015FCF4C595C4F64
:1032200004E610E020E230E0D3CF9091590392FB06
:10323000222720F9281769F080FB92F9909359030F
:10324000609158037091590384E090E00E945735D3
:103250000FC908951F920F920FB60F9211242F934A
:103260003F934F935F936F937F938F939F93AF930E
:10327000BF93EF93FF938091E10082FF09C080919B
:10328000E20082FF05C08091E1008B7F8093E10026
:103290008091DA0080FF24C08091D80080FF20C098
:1032A0008091DA008E7F8093DA008091D90080FFD0
:1032B000AAC080E189BD82E189BD09B400FEFDCFCD
:1032C00081E08093470380913C03811109C00E94F3
:1032D0006F0C0E94100D8091E20084608093E200E8
:1032E0008091E10080FF1AC08091E20080FF16C04B
:1032F0008091E2008E7F8093E2008091E200806105
:103300008093E2008091D80080628093D80019BC3D
:1033100085E08093470383E0809318018091E1006A
:1033200084FF30C08091E20084FF2CC080E189BD21
:1033300082E189BD99B5892F817090FFFBCF909173
:10334000D8009F7D9093D8009091E1009F7E90934C
:10335000E1009091E2009F7E9093E2009091E20064
:1033600091609093E20090914803992309F451C031
:1033700094E09093470390914703943009F482E0DE
:10338000809318018091E10083FF2CC08091E200BE
:1033900083FF28C08091E100877F8093E10082E075
:1033A00080934703109248038091E1008E7F8093C1
:1033B000E1008091E2008E7F8093E2008091E20044
:1033C00080618093E20042E060E080E00E94DE0CD9
:1033D0008091F00088608093F00081E08093180174
:1033E00080931701FF91EF91BF91AF919F918F91C2
:1033F0007F916F915F914F913F912F910F900FBEF1
:103400000F901F90189519BC1092470310923C031F
:1034100067CF9091E30097FD02C0982FAACF93E069
:10342000A8CF78941F921FB61F9211248F939F9359
:10343000AF93BF938091380390913903A0913A03E1
:10344000B0913B030196A11DB11D80933803909369
:103450003903A0933A03B0933B03BF91AF919F917F
:103460008F911F901FBE1F9018952FB7F8948091D1
:10347000380390913903A0913A03B0913B032FBFD9
:103480000895CF93DF93EC01F0DF8C1B9D0BDF9150
:10349000CF910895A4E0B0E0E0E5FAE10C943D346A
:1034A00019821A821B821C828AE5C82E81E0D82EDE
:1034B00010E000E0EE24E394F12CF60181916F011D
:1034C0008F3F09F446C0F894E82FE295EF70F0E0E2
:1034D00021A18F70A70102C0440F551F8A95E2F702
:1034E000CA01922F982B91A392A18095892382A340
:1034F000789400C0EEE5F1E0B12C31E021912F3F4E
:1035000009F452C0A22FA295AF70B0E090968C91B2
:1035100090E02F7002C0959587952A95E2F780FD7F
:1035200043C0832FB82A330F51E0E136F50731F756
:10353000F601319780818F3F11F00E94670F80EA7A
:103540008A95F1F7E1E0F0E0EC0FFD1FE00FF11FCD
:10355000B0820F5F1F4F0430110509F0AECF44E079
:1035600050E0BE016F5F7F4F89E092E00E94FD3422
:10357000892BF1F089819A81AB81BC81809309020A
:1035800090930A02A0930B02B0930C0281E0809307
:1035900008026BDF909307028093060210E0812FF0
:1035A0002496E9E00C94593480E0BCCF10E027C0A9
:1035B00010910802112391F3E0900602F0900702A7
:1035C00054DF8E199F09059748F344E050E069E005
:1035D00072E08EE592E00E94FD34892B39F38091F0
:1035E000090290910A02A0910B02B0910C02809303
:1035F0005E0290935F02A0936002B093610210920A
:103600000802CDCFCF93C091300380912F03C82BF8
:1036100080910302882301F128DF2091010230917B
:103620000202821B930B8838934110F00E947011A4
:1036300080910302C82B80911701813081F4809121
:10364000580387FF0CC02EE184E991E030E021505F
:1036500050F431110E9470118C2FCF91089526E003
:103660008CE891E0F3CFFC014191CF01442379F341
:103670003F5FEDCF80911701813061F58091580354
:1036800087FF28C0BFDF8093930140E250E069EDDF
:1036900071E082E991E00E94FD34892BD1F080E253
:1036A000E2E9F1E0A9EDB1E001900D928A95E1F730
:1036B000E0915103F0915203309759F00480F58165
:1036C000E02D309731F086E08093920182E991E01D
:1036D0000995089597DF80938A0148E050E069EFEB
:1036E00071E08AE891E00E94FD34892B91F388E033
:1036F000EAE8F1E0A9EFB1E001900D928A95E1F7D7
:10370000E0915103F0915203309719F30280F38155
:10371000E02D3097F1F28AE891E0DACFCF93DF9392
:10372000EC014A855B856E857F850E94940E8B81B6
:10373000982F909580912F03892380932F038C815C
:103740000E947B1197DF86E0FE0111928A95E9F7CE
:10375000DF91CF910895CF93DF93EC018D8181FDAF
:1037600016C082608D8380912F039B81892B80936B
:103770002F03809130039C81892B809330037ADF63
:10378000488559856E857F85CE010E94940E1092E2
:103790003203109231038D8180FD02C0CE01BEDF65
:1037A000DF91CF91089510923003809117018130FD
:1037B000B1F48091580387FF12C0E4E9F1E08EE193
:1037C000DF011D928A95E9F790E080E00E945E0E8D
:1037D00090E080E00E94370E10922F034BCFECE870
:1037E000F1E086E0EDCFAAE2B0E0E9EFFBE10C9476
:1037F000433489E493E02091F100DC012D93CD0165
:10380000B3E081359B07B9F780914A03833009F40F
:1038100072C0B8F4813009F449C0823009F4B6C0EE
:103820008091E80083FF3EC18091490390914A0353
:103830009A3008F037C1E92FF0E0EC58FA4C0C94BC
:10384000C8348A3009F491C08B3009F471C08930D2
:1038500039F780914903813219F780914D03909196
:103860004E03009711F00297D9F68091E800877F08
:103870008093E8008091E80082FF38C09091F300C7
:103880008091F200029731F48091F100813011F0C3
:10389000863021F48091F100809316018091E80038
:1038A0008B778093E8000E94BF0CBACF80914903C8
:1038B000813A09F0B5CF8091E800877F8093E800D6
:1038C00080914D0390914E03892B61F468E08DE364
:1038D00093E070E00E946A0D8091E8008B778093FE
:1038E000E8009ECF60E090E080E0F3CF8091470356
:1038F0008111C0CF95CF80914903813A09F090CFD3
:1039000080914D0390914E03892B09F089CF8091CE
:10391000E800877F8093E8008091E80080FFFCCF7B
:10392000809117018093F1008091E8008E77B9CFE4
:1039300080914903813209F073CF80914D039091BA
:103940004E03892B09F06CCF8091E800877F80932C
:10395000E8000E94BF0C81E090914B03911101C0DF
:1039600080E0809317011FDF5BCF80914903813294
:1039700009F056CF8091E800877F8093E8000E948D
:10398000BF0C80914C03809315014ACF809149036D
:10399000813A09F045CF8091E800877F8093E80065
:1039A0008091E80080FFFCCF80911501BBCF80386B
:1039B00099F0823809F076C080914D038F7087307E
:1039C00008F070C08093E9008091EB0085FB8827A8
:1039D00080F91092E90006C080914503909146035A
:1039E000911182609091E800977F9093E800809316
:1039F000F1001092F1008091E8008E77C3C1882316
:103A000009F4B0C1823009F04DC080914B0381119F
:103A1000B4C180914D038F702FEF280F263008F02E
:103A200041C08093E9002091EB0020FFA6C19330B4
:103A300031F48091EB0080628093EB009EC1909105
:103A4000EB0090619093EB0021E030E001C0220F89
:103A50008A95EAF72093EA001092EA008091EB0041
:103A60008860EACF81111EC010914B031F778091AF
:103A7000E3008078812B8093E3008091E800877FCA
:103A80008093E8000E94BF0C8091E80080FFFCCF8B
:103A90008091E30080688093E30082E0111183E06D
:103AA000809347038091E80083FF0AC08091E8007B
:103AB000877F8093E8008091EB0080628093EB0029
:103AC000AA96E3E00C945F348058823058F7209136
:103AD0004B0330914C032C3DE3E03E07A1F583E01E
:103AE0008A838AE289834FB7F894DE01139620E037
:103AF0003EE051E2E32FF0E050935700E49120FFC5
:103B000003C0E295EF703F5FEF708E2F90E0EA30D8
:103B1000C0F0C7968D939D932F5F243159F74FBF07
:103B20008091E800877F8093E8006AE270E0CE0130
:103B300001960E946A0D8091E8008B778093E800DF
:103B4000B1CFC096E7CF80914D0390914E03432FA4
:103B500055274330510509F44AC078F541305105E5
:103B600009F485C08BE590E0E9E2F1E142305105CE
:103B700009F098CF2091E800277F2093E80020915A
:103B80004F03309150038217930708F49C0140E0E3
:103B90002115310509F070C041116EC08091E80017
:103BA00082FDC9CF80914703882329F2853019F21D
:103BB0008091E80083FFF2CFBECF4132510509F476
:103BC00047C04232510509F06DCF8330910508F0AE
:103BD00069CFFC01EE0FFF1FE458FE4F0190F0810A
:103BE000E02D87589E4FDC018C9190E01DC033275B
:103BF00021303105E9F02115310579F02230310508
:103C0000F9F02330310509F04DCFE6E9F1E1E49117
:103C10008E2F90E0E6E9F1E107C0E6EDF1E1E491F5
:103C20008E2F90E0E6EDF1E1009709F43BCFA2CFB3
:103C3000E8ECF1E1E4918E2F90E0E8ECF1E1F4CFD3
:103C4000E4EBF1E1E4918E2F90E0E4EBF1E1ECCFD5
:103C50008330910508F026CF880F991FFC01EE579D
:103C6000FE4F0190F081E02D89E090E083CF82E16A
:103C700090E0E4E8F1E17ECF80914703882309F4E6
:103C80005ACF853009F457CF8091E80083FD53CF98
:103C90008091E80082FD82CF8091E80080FF78CF9C
:103CA0009091F3008091F2002115310519F08830D0
:103CB000910550F041E0089709F040E08091E8005C
:103CC0008E778093E80064CF44914093F100319661
:103CD000215031090196E8CF803809F0E3CE809178
:103CE000E800877F8093E800809148038093F1008B
:103CF00082CE8111D7CE10914B03123008F0D2CE74
:103D00008091E800877F8093E800109348030E9429
:103D1000BF0C112311F084E005C08091E30087FD02
:103D2000FACF81E08093470342E061EC81E00E949A
:103D3000DE0C42E261EC84E00E94DE0C42E261ECC7
:103D400082E00E94DE0C42E260EC83E00E94DE0C26
:103D500080914703843021F081E080931801A2CE46
:103D600082E0FBCF80914B03813009F09BCE81E054
:103D7000933009F080E0809346031092E90080912F
:103D8000E800877F8093E8000E94BF0C8BCE1F92D3
:103D90000F920FB60F9211242F933F934F935F937F
:103DA0006F937F938F939F93AF93BF93CF93DF9343
:103DB000EF93FF93D091E900DF708091EC00C82F62
:103DC000C17080FDC0E81092E9008091F000877F0B
:103DD0008093F000789407DD1092E9008091F00064
:103DE00088608093F000CD2BCF70C093E900FF91E5
:103DF000EF91DF91CF91BF91AF919F918F917F9183
:103E00006F915F914F913F912F910F900FBE0F9047
:103E10001F901895C8DC2FEF84E39CE02150804070
:103E20009040E1F700C0000088E19CE00FB6F894F4
:103E3000A895809360000FBE90936000FFCF882309
:103E400039F0809590912F03892380932F0312CC12
:103E5000089580912A03882321F082E2F0DF1092F6
:103E60002A030895882331F090912F03982B909383
:103E70002F0300CC0895882319F00E947B11FACB00
:103E80000895882331F090913003982B909330035C
:103E9000F1CB0895882321F19CEF980F913A18F403
:103EA0000E94D80DE7CB90E2980F983050F48770BD
:103EB00091E001C0990F8A95EAF7892F0E947B1142
:103EC000F1CF9BE5980F933020F490E080E00C94C4
:103ED0005E0E885A8B3120F490E080E00C94370E0F
:103EE0000895CF93C82F8823A9F18CEF8C0F813AC6
:103EF00098F5809117018130F9F48091580387FF7C
:103F00001BC0EC2FE695E695E695F0E0EE56FE4FE9
:103F1000828190E04C2F477021E030E002C0220FF8
:103F2000331F4A95E2F782239323892B79F08C2F54
:103F30000E94D80D9FDB0AC0ECE8F1E082E991E035
:103F40002191C217A1F38E179F07D1F78C2F0E94E2
:103F5000030E90DBCF91089580E28C0F883068F4D7
:103F6000C77021E030E001C0220FCA95EAF78091C6
:103F70003003822B80933003ECCFEBE5EC0FE33082
:103F800040F4F0E0EF5DFE4F808190E00E945E0E15
:103F9000E1CFC85ACB31F0F6EC2FF0E0EE0FFF1F67
:103FA000EC5DFE4F808191810E94370ED3CF1F932D
:103FB000CF93DF93182FEB0194DF209731F4812FFB
:103FC00069DFDF91CF911F9108958FE99FE00197FD
:103FD000F1F700C000002197F0CFEF92FF920F930E
:103FE0001F93CF93DF93C62FD42F022FFC0185811F
:103FF000882399F06093550338DA909354038093A3
:104000005303C77081E001C0880FCA95EAF739DF12
:10401000CDB7DEB7E6E00C945C34809155036813AD
:1040200031C0E0905303F09054031FDA8E199F09BA
:10403000883C910538F510E21D0FCD17A9F080E2FC
:104040008C0F883038F4C77081E001C0880FCA95A2
:10405000EAF711DF183040F481E09D2F977001C01E
:10406000880F9A95EAF70DDF70E060E0802F9FDF00
:10407000183070F6D77081E001C0880FDA95EAF742
:10408000FADEC6CFC77081E001C0880FCA95EAF793
:10409000F7CFB0E0A0E0EFE4F0E20C943C34FC0198
:1040A0008AE0A82EDF012D918D012223D1F121304C
:1040B00009F051C08181813061F482818F010D5FEF
:1040C0001F4F70E060E0893311F460E570E06FDF4E
:1040D00007C0823039F48F010D5F1F4F828101DFED
:1040E000F801E0CF833031F48F010D5F1F4F8281E3
:1040F000D1DEF6CF8F010E5F1F4F843081F48281B5
:104100008F010D5F1F4F30E020E0682F6053770B69
:10411000AB016A30710550F02115310599F4811118
:10412000DFCFCDB7DEB7EAE00C945834A29EC001D1
:10413000A39E900D11249A01280F391FF801819137
:104140008F01E3CFAFE9BFE01197F1F700C00000A6
:1041500021503109E1CFE22FF0E0E65FFD4EB4904F
:10416000822F86958695869590E0FC01E650FE4E5E
:10417000E4902770F12C022E02C0F594E7940A9483
:10418000E2F7B1E0EB22FF24FC01E651FE4EC490C1
:10419000D12C022E02C0D594C7940A94E2F7E1E034
:1041A000CE22DD24FC01E652FE4EC491D0E002C0D6
:1041B000D595C7952A95E2F7C170DD27E114F10482
:1041C00011F081EE8EDEC114D10411F086EE89DE8D
:1041D00070E060E08B2DEBDEC114D10411F086EEAF
:1041E00059DEE114F10411F081EE54DECD2B09F417
:1041F00077CF70E060E08CE26ACFAEE0B0E0E3E061
:10420000F1E20C94443449875A876B877C878D8709
:104210009E87911110922F0318861F8286E0FE015F
:104220003996DE01119601900D928A95E1F7809101
:10423000590382FF1AC019D92091560330915703B0
:10424000821B930B8838934120F080915A0382FFA0
:1042500020C00BD92091010230910202821B930BE6
:104260008838934110F00E9470118D81882351F09D
:1042700061E0CE0101960E94751561E0CE010196C4
:104280000E947515CE01019658D12E96E2E00C944D
:1042900060340E943812DDCFA6E0B0E0E2E5F1E242
:1042A0000C9442348C019093650280936402011552
:1042B00080E21807A8F4802FEDDDC8010E94A0124B
:1042C0009801205E31092830310518F001151105DB
:1042D00029F4D1DD2696E4E00C945E34B0DDFACF0B
:1042E00080EF89838A83C1D88160682F9C838B8308
:1042F00049815A817C8181E090E07FDFEBCF0F9391
:104300001F93CF93DF938C01EB016AE672E08C2F51
:104310000E949616892B71F4DD27CA59DD4F8881DA
:10432000F801128218828330E9F048F4813059F0A4
:10433000823081F0DF91CF911F910F9108958430E9
:10434000B1F08530B9F780916A0290916B020097C5
:1043500089F306C080916C0290916D02009799F3E9
:104360009BDFE8CF80916E0290916F02F7CF809132
:10437000700290917102009799F720916A02309132
:104380006B0280916C0290916D0221153105F9F25A
:10439000009731F7C901E4CFA6E0B0E0E2EDF1E229
:1043A0000C9442348C019093650280936402011551
:1043B00080E21807A8F4C8010E94A0129801205EAC
:1043C00031092830310518F00115110539F459DD8E
:1043D000802F87DD2696E4E00C945E3443DDF8CF31
:1043E00080EF89838A8341D88160682F9C838B8387
:1043F00049815A817C8181E091E0FFDEEBCFCF9350
:10440000DF93EC01C9DFCE0147DFDF91CF91089543
:104410000F931F93CF93DF938C01862F6AE672E090
:104420000E949616892B99F4C0916A02D0916B0272
:10443000209769F0F8018281833039F4CE01DFDF03
:10444000CE01DDDFCE01DBDF02C08430D8F7DF91A3
:10445000CF911F910F9108950F931F93CF93DF93E7
:104460008C01EB016AE672E08C2F0E949616892B74
:1044700009F059C0FE01FF27D80112968C911297BE
:10448000EA59FD4F8130B9F415969C9192FF02C014
:1044900080830AC090FFFCCF82E0808380916C0211
:1044A00090916D020097B9F480916A0290916B022D
:1044B0000097C9F110C08230A1F515968C9182FD4C
:1044C00026C080FD0AC083E0808380916E029091B7
:1044D0006F020097F1F060DF26C084E08083809156
:1044E0007002909171020097B1F780916A029091E9
:1044F0006B020097E9F083DF80916C0290916D026E
:10450000009749F780916A0290916B02E4CF85E0B1
:10451000808380916A0290916B02009721F06FDF97
:10452000F1CF86E08083DF91CF911F910F910895A5
:1045300080916C0290916D02BBCFABE0B0E0E3EAFA
:10454000F2E20C9434348C01DC0114968C918823B3
:1045500009F43EC161E0C8010E9475157C01F801B3
:104560008581882329F1809131039091320300974E
:10457000F9F0E816F906E1F0FC01FF278C7F992796
:10458000892B09F0CBC084E0EE0FFF1F8A95E1F77D
:10459000EC58FD4F858184608583F182E082CF01F4
:1045A000DAD810922F0361E0C8010E9475157C01D2
:1045B000D80115962C91222309F1C7019A958115EE
:1045C0009F4408F0AEC0C7019927AC01445051097F
:1045D0004432510518F08B970E9780F4E0911C023D
:1045E000F0E0EE0FFF1FEF5DFD4F808191818F3F67
:1045F0003FE7930719F00196918380834091CD01A5
:104600004E834111F4C1222309F49AC050E4E51607
:1046100052E5F50608F0E0C0E11482E5F80608F07E
:104620008FC0E11497E0F90609F48AC008F083C04E
:10463000C701805E9109089708F482C03091300369
:1046400080912F032091030298E0F801ACEBB1E0D8
:1046500001900D929A95E1F7F092C301E092C201A8
:1046600010922E03832B822B8093BB01C701975797
:104670008038910508F027C7BE2CFFE0FE1508F42E
:1046800099C06EE073E080E090E00E94AF14811169
:1046900091C0C12CD12C7601B110FBC1AE014F5F8E
:1046A0005F4F1A01D101E4E01D92EA95E9F7460156
:1046B0005701FFEF8F1A9F0AAF0ABF0AC701B60161
:1046C0000E94AF148983882309F474C0813019F5DE
:1046D0002601370122E0420E511C611C711CC501EC
:1046E000B4010E94AF148D838A83882309F462C0C9
:1046F0008150833008F0E9C14601570133E0830E51
:10470000911CA11CB11CC301B2010E94AF148B8388
:10471000882309F4D7C1C101BCDCD4C1F0E0E0E0DA
:1047200039CF90E080E0EFEFEE16F10411F008F0E1
:104730004CCFC7014ACFE114BFE0FB0609F07ECFA2
:10474000B9E7EB16BCE7FB0609F059C08091C2013E
:104750009091C301892B71F1222399F081E00E948D
:10476000B00E8091BB017EDB88E0ECEBF1E0A3EBC7
:10477000B1E001900D928A95E1F780912E0380932C
:10478000B20186E0F801A3EBB1E001900D928A95A9
:10479000E1F78091B2018093CD0183EB91E0CDDE12
:1047A0001092CD01D80115968C91811103C0809192
:1047B000BB0145DB80915A03877051F0D8011596F3
:1047C0008C91882329F08091590382FD0E94381230
:1047D0002B96E2E10C945034E0E6EE16E2E5FE069C
:1047E00008F42CCFF0EEEF16F2E5FF0608F4A8CFA0
:1047F000C70187579C47059708F4A2CF1FCFBAE798
:10480000EB16BCE7FB0609F0F2C0222309F4C7C08F
:10481000A090C201B090C301E091BB01ED83E98398
:10482000BE016F5F7F4FC5010E94280F3C01F981D7
:10483000FB87F4EBCF2EF2E0DF2EEE24E394F12C95
:1048400022242A94D60117963C90179733FE54C021
:104850004D905C90119712968D909C9013976414D4
:104860007504B9F41496BC91BA87232DF6014681DC
:104870006B2F8B850E94060F882359F08A850E9432
:104880009612281634F4D60115969C917401F92AD3
:10489000282E68147904C9F431FE17C0F601F58199
:1048A000FA87232DD60116964C916F2F8B850E9487
:1048B000060F882351F08A850E94961228162CF440
:1048C000F60194817201F92A282E30FE15C0FFEFFF
:1048D0002F1212C021E0E216F10471F4232DD6014B
:1048E00016964C9160E08B850E94060F882321F07C
:1048F000F60185817401F82AF8E0CF0ED11C24EF6F
:1049000032E02C153D0509F09DCF31E0E316F104AE
:10491000D9F58D81807F11F040E14E83DD80D29406
:10492000EFE0DE225D81D52A8D2D8F70D82E9E81FD
:10493000D92AC5019A9581159F41F8F4DB28BB243B
:10494000CA2C8D2D8D704A2D09F44DC06AE08DE979
:104950009FE00E949A0EE82EF12CE114F10459F424
:104960004C2D66E18FE79FE00E949A0EE82EF12C15
:10497000E114F10439F0FD2807C0BFEFAB16B10414
:10498000F9F2F0F2F12CE12C86E0E5ECF1E0DF0148
:104990001D928A95E9F7F092CC01E092CB018091CB
:1049A000CB019091CC01892B09F404CFF8018581CA
:1049B000882339F08FEF0E94B00E80912E038093F0
:1049C000C40186E0F801A5ECB1E001900D928A9552
:1049D000E1F78091C4018093CD0185EC91E0ADDDDC
:1049E0001092CD01E7CE68E085E99FE0B2CF2111BA
:1049F0003DCEE11427E5F20608F44DC5E11438E593
:104A0000F30608F0E7C0670147E5D41A6AE672E0EA
:104A10008C2D0E949616892B31F5C60164E0880F13
:104A2000991F6A95E1F7FC01EC58FD4F2281213076
:104A300009F0BBC020916A0230916B02232B99F0E0
:104A400020916C0230916D02232B69F020916E024F
:104A500030916F024091700250917102242B352BDE
:104A6000232B09F4ACC080912A038111F7C0C70140
:104A700097558F3F910509F008F476C1F701E85189
:104A8000FC47E730F10508F0B1C1E258FA4C0C944C
:104A9000C8342FE0C21623E0D206E104F10409F481
:104AA00089CEC701B6010E94AF14811101C0BA942A
:104AB0003FEFC31AD30AE30AF30AEECD8E809F803C
:104AC000A884B98475016401EDCD8D818550833052
:104AD00098F5D701C6010396A11DB11D8E839F8352
:104AE000A887B987C301B2010E94AF148B838823C2
:104AF00029F34601570194E0890E911CA11CB11CB9
:104B00006E817F81888599850E94AF148C8388236C
:104B1000C9F28B819C818130AFEF9A0710F0982FFA
:104B20008827BD81B63021F0B73021F068DCCACFCC
:104B300033DCC8CFB1DBC6CFED8153014201E43095
:104B400009F0C0CFC301B2010E94AF14782E460114
:104B50005701F4E08F0E911CA11CB11CC701B601D6
:104B60006D5F7F4F8F4F9F4F0E94AF14772009F4E6
:104B700021CE882309F41ECE482F4150550B9A01AF
:104B80005FEF529FC001539F900D1124A72DA1509C
:104B9000BB0B8A0F9B1F019708F494CFEFE9FFE04E
:104BA0003197F1F700C00000F6CF223009F05BCF5B
:104BB00020916E0230916F02232B09F454CFFC0137
:104BC000E758FD4F20812E7F20838C589D4F0E94F7
:104BD000AB1B49CF53E7E5165CE7F50609F4EACDD0
:104BE00042CF109230030E9470110E94351A8857EC
:104BF0009C4E909354028093530281E080932A0349
:104C0000D9CD21EE30E02770332781E090E001C05C
:104C1000880F2A95EAF72091CE0130912A03332399
:104C200061F0D80115963C91332321F0822B8093BB
:104C3000CE01C0CD80958223FACF322F382309F4DC
:104C400016CF982F909529232093CE010E947B1197
:104C5000F8018581882309F4ADCD09CFC0903003D8
:104C6000D09003020E94351A88579C4E90935402AC
:104C700080935302D80115968C91882309F4F7CEBE
:104C80008D2D8C298D7909F050C0B4EBEB16B2E56F
:104C9000FB0609F4ECCE48F5F0E4EF16F2E5FF066A
:104CA000E8F4E11422E5F20608F0E1CE36EEE31670
:104CB000F10409F4DCCE10922F0398E2E916F10416
:104CC00058F5AEE1EA16F10408F041C0B4E0EB1685
:104CD000F10458F182E080932F0339C0C701805658
:104CE00092458034910538F7C2CE49E7E4164CE787
:104CF000F40660F457E7E5165CE7F50608F0B7CE72
:104D0000C701805C92458097B0F6B1CE8BE7E8167C
:104D10008CE7F80681F6ABCEEDE2EE16F104D1F2A7
:104D200068F42AE2E216F10491F093D880913003FE
:104D30009091CE01892B8093300399CE3CE4E31609
:104D4000F10429F04DE2E41642E0F40671F7809197
:104D5000CE01882331F080912F0392E08927809340
:104D60002F030E943A1B83CEC7018C7F9927892B82
:104D700009F020CDF701FF2754E0EE0FFF1F5A95F1
:104D8000E1F7CF018C589D4F6C01D80115968C919D
:104D9000E758FD4F908180FB90F99083882309F4B8
:104DA00048C00E94351A9093150280931402F601B0
:104DB00082818F5F828380912F0390913003892BB2
:104DC000838380910302848346815781668577853A
:104DD000C6010E94940ED60115968C9181FF26C0C3
:104DE00090E080E09093310380933203F801958145
:104DF000992309F48AC3109255039701305723323F
:104E0000310508F06DC384E090E00E94293590934D
:104E1000590380935803F701E150F047E232F1055E
:104E200008F041C0EB57FA4C0C94C8349E2D8F2DDE
:104E3000D9CFF6014485558566857785C6010E94E0
:104E4000940ED60115968C9181FF18CEC6010E9452
:104E50008E1B8091310390913203E816F90609F018
:104E60000DCE1092320310923103C0CF26E241EEF4
:104E700061EEC801B2D89ECC27E245EE65EEF9CFCF
:104E800026E241EE60EEF5CF27E245EE64EEF1CF8B
:104E900026E241EE62EEEDCF27E245EE66EEE9CF87
:104EA00028E241E0EBCF8091580381608093580362
:104EB00095C0809159038860809359038FC0809179
:104EC00058038260F3CF809158038460EFCF8091C4
:104ED00058038860EBCF809159038160EDCF8091BA
:104EE00059038260E9CF809158038061DFCF8091C0
:104EF00058038062DBCF809158038064D7CF0E9433
:104F0000D31B809158038068D1CF809158038C6067
:104F1000CDCF809159038360CFCF809158038E7F8E
:104F2000C5CF80915903877FC7CF809158038D7F6C
:104F3000BDCF809158038B7FB9CF80915803877F75
:104F4000B5CF809159038E7FB7CF809159038D7F64
:104F5000B3CF809158038F7EA9CF809158038F7D66
:104F6000A5CF809158038F7BA1CF0E94D31B809146
:104F700058038F779BCF80915803837F97CF809181
:104F800059038C7F99CF8091580382FB992790F920
:104F900021E0922790FB82F990FB83F987CF8091E3
:104FA0005903982F909591708E7F892B90FB81F9F2
:104FB00083CF90915803892F8F7B96FF806476CFA3
:104FC0000E94D31B90915803892F97FB87F9805833
:104FD0006DCF61E08EE090E00E943D356091580316
:104FE0007091590384E090E00E9457350E94D31BD2
:104FF000E1CB60E0EFCF90915803892F8F7E94FF33
:10500000806154CF90915803892F8E7F90FF8160EB
:105010004DCF90915903892F877F93FF88604CCFA4
:1050200085E36EC285E37BC281E00E94521243E0B9
:1050300062E081E00E940F12BDCB81E00E942D1240
:10504000F6CF40912D0380910E02282F30E020955D
:10505000309570E024233723232B19F04823409305
:105060002D03FBE7EF16FCE7FF0641F4992309F453
:10507000A1CB0E9485120E945C129CCB20E4E21618
:1050800022E5F20608F056C030E2E31632E5F306F8
:1050900008F057C0970130552115324008F467C019
:1050A000992399F053E0E5165CE7F50609F49BC0F7
:1050B00008F07AC0E1149CE7F90609F487C0A1E082
:1050C000EA16ACE7FA0609F494C0F80186819781E4
:1050D000009709F49CC00E946F107C01F801B58014
:1050E00080915A038770B9F0DB2CBB20A9F08F2D7B
:1050F000807F803421F080E28E0D883060F08091D6
:10510000590382FF08C00E94381280915A038770A9
:10511000DD24D3948111D12CCF2CC2949FE0C922DD
:10512000FBE0FC1508F4BEC0EC2DF0E0E955FA4CAC
:105130000C94C8349701205C32452032310508F0C8
:10514000AFCF8E2D8F7120912D0330E041E050E0E4
:10515000082E02C0440F551F0A94E2F7242335237A
:10516000232B09F49DCF992309F424CB84CF9701F5
:1051700045E0369527954A95E1F7822F8F7020916B
:105180002D0330E041E050E0082E02C0440F551FCF
:105190000A94E2F724233523232B09F481CF9111BC
:1051A0006ACF10923003AEC1BBE5EB16BCE7FB063D
:1051B00061F1ECE5EE16ECE7FE06E9F0FAE5EF1634
:1051C000FCE7FF0609F081CF81E01CC00E94D31BE1
:1051D0002FEF34E34CE0215030404040E1F700C075
:1051E00000000E9421146FEF7FEF90E080E00E94AA
:1051F00057350E940A1F8091590382FB882780F946
:1052000091E089270E94151960CF80E0FBCF85814E
:10521000E080F180882369F0C7010E944815D82EEC
:10522000682FC7010E94F111B7018D2D0E941E1534
:1052300052CFC7010E94A911D82EF6CF2F2D2F7063
:10524000A22E9F2D907F19F0A29480EFA822BB2060
:10525000C9F0AA2069F080E28E0D883010F0E110CC
:105260000BC080913003A82AA09230030E943A1B01
:105270008E2D0E94711F16C080912F03A82AA09224
:105280002F03F4CF8E2D0E944A1FAA2059F080E2EE
:105290008E0D883010F0E11013C08A2D0E947B1112
:1052A0000E943A1B2C2D2850330B2230310508F078
:1052B000D9C00E94850E60E0C8010E94751588CA99
:1052C000A09480912F03A822A0922F03E9CF8F2DC5
:1052D00086958695837059F0813021F7C7019370C8
:1052E000B11002C080E090E00E94370EDBCFC70112
:1052F0009370B11002C080E090E00E945E0ED2CFA9
:105300008F2D837091F5B110CDCF4E2D42954695DE
:105310004770440F440F8E2D8F70042E01C0880FEC
:105320000A94EAF72E2D2071E4FE07C02FE030E04A
:1053300001C0220F4A95EAF720953F2D3695369504
:105340003370323069F050F440910D02313029F061
:10535000822B84230E948212A5CF842B822BFACF2A
:10536000282B80910D028227F5CF8695BB2011F066
:105370008F2D8170882309F495CF4E2D4295469547
:105380004770440F440F8E2D8F70042E01C0880F7C
:105390000A94EAF72E2D2071E4FE07C02FE030E0DA
:1053A00001C0220F4A95EAF720953F2D3695369594
:1053B0003370323069F050F440910E02313029F0F0
:1053C000822B84230E940C126DCF842B822BFACF68
:1053D000282B80910E028227F5CF3F2D3F70F32EB0
:1053E000BB2039F0832F0E9452128E2D0E94411F44
:1053F00059CF8E2D0E943B1F8F2D0E942D1252CF10
:1054000042EFE41669F053EFE51679F081EFE81208
:1054100017C08F2D8F71BB2081F30E94521242CF93
:105420008F2D8F71BB20C9F3E8CF80E0BB2051F2F4
:105430009F2D9F7181E001C0880F9A95EAF7C2CF36
:10544000B11016CF99E3E91209C0AFEFB7EEE3E070
:10545000A150B040E040E1F700C000008E2D0E9456
:105460004A1F20CFDD2009F426CF80915A0380FD0A
:1054700022CFD80115961C928695869586950E9416
:105480005212C8015AD880915A03869586958695FE
:105490000E942D1210CFE2EAEE16E2E5FE0609F4B4
:1054A000B0CBF2EBEF16F2E5FF0651F081EEE81615
:1054B000F10409F4A6CB95EEE916F10409F0D3CA7C
:1054C00025EE30E0A0CB23E7E2162CE7F20619F731
:1054D00080912A03882309F484CB0E94291F6AC97A
:1054E00036E1E3163CE7F306E9F4809130038A7A6B
:1054F00091E009F490E09093CF01811191CD89E280
:105500000E94030E0E943A1B55C946E1E4164CE77F
:10551000F406A9F48091CF01811184CD89E20E9423
:10552000D80DF0CF57E7E5165CE7F50609F47CCD1A
:1055300088E7E8168CE7F80679F482E076CDA7E7ED
:10554000EA16ACE7FA0609F478CD82E0B8E7EB1684
:10555000BCE7FB0609F472CD9701205E324520328C
:10556000310508F06ECD91116CCDEE2DEF7181E01B
:1055700090E07C0102C0EE0CFF1CEA95E2F76E2D74
:1055800083E090E00E943D358E2D0E94821212C968
:10559000A6E0B0E0EEECFAE20C9442340E94351A38
:1055A0008C0180910402909105028017910781F08F
:1055B00019821A820E94351A682F49815A81792FDF
:1055C00080E090E00E94FD20109305020093040209
:1055D0002696E4E00C945E341F921FB61F921124AD
:1055E0008F939F93AF93BF9380913703811113C023
:1055F0008091380390913903A0913A03B0913B0315
:105600004196A11DB11D8093380390933903A09357
:105610003A03B0933B03BF91AF919F918F911F903D
:105620001FBE1F901895CDB7DEB7EF970FB6F89451
:10563000DEBF0FBECDBF85B7806885BF85B78068E8
:1056400085BF84B7877F84BF0FB6F894A8958091F3
:105650006000886180936000109260000FBE80E857
:1056600090E00FB6F89480936100909361000FBEB4
:1056700081E08093180185E69FE0909389018093F3
:1056800088010E94400F0E94AA160E946F0C0E947F
:10569000100D8091E20084608093E2007894809104
:1056A00047038823A1F01091E9001F709091EC004E
:1056B000892F817090FD80E8182B1092E90080916D
:1056C000E80083FD0E94F31B1F701093E90082E045
:1056D00084BD93E095BD9AEF97BD80936E000E94C4
:1056E0009614811102C00E947116E2E2F3E088E094
:1056F000DF011D928A95E9F781E08093570260E00F
:1057000080E00E94CE0E61E080E00E94CE0EEFE8C5
:10571000F1E03197F1F700C0000010E080915702EE
:10572000181708F47EC087EF0E94670F87E90E9470
:10573000670F86E60E94670F84E90E94670F84EF77
:105740000E94670F85EF0E94670F86EF0E94670F28
:1057500084E0EEE5F2E0DF01282F1D922A95E9F7BB
:10576000E9E0F2E0DF011D928A95E9F790E080E040
:105770000E942935833E9E4F21F40E949614811188
:1057800029C063EE7EEF90E080E00E94573560E034
:1057900082E090E00E943D3581E080930D0261E05F
:1057A00083E090E00E943D3560E074E184E090E0A9
:1057B0000E9457350E94711640E050E0BA018FE018
:1057C00090E00E944F3540E050E0BA0183E190E064
:1057D0000E944F3582E090E00E94213580930F02B5
:1057E00084E090E00E9429359093590380935803F8
:1057F0000E944A1AEFEFF6E721E0E150F040204026
:10580000E1F700C000000E944A1A80915F0280FF09
:105810001AC06FEF7FEF90E080E00E9457350E9442
:10582000211460E0812F0E94C10E082F61E0812FBA
:105830000E94C10EE12FF0E0EA5AFD4F880F802B45
:1058400080831F5F6BCF83E090E00E9421350E9430
:10585000821282E080931A0380E880935B03F8D67B
:105860006BE070E08EEB9FE00E94E6168823E9F182
:1058700080911A0365E070E081FD9FC089EB9FE095
:105880000E94E616882389F16DE070E087EA9FE0C8
:105890000E94E616882349F10E94C90D605A75419D
:1058A0008F4F9F4F60931C0370931D0380931E03C3
:1058B00090931F03E4E6F3E080E092E0DF019C01B7
:1058C0001D9221503040E1F7F0936505E0936405A7
:1058D0008FEF9FEF909363038093620381E0809347
:1058E00021038093200310921B0380E091E09093AA
:1058F0005203809351038EE592E034E0380F3FAFBE
:1059000080914703853069F410E400E182E1F82ECC
:1059100080914703853009F453C00E94D31B0E9435
:10592000850E0E944A1A10E1E12E12E0F12E0EE5DA
:10593000C02E02E0D02E24E132E0D601F701919191
:105940008D912E173F0709F46FC09817C1F310E02F
:1059500088248394D6010D916D01F70191907F0108
:10596000901619F19026B12CAA24A394892D8A218E
:10597000A1F0BFAA18AF0E94351A9AAF89AF8BAEBB
:1059800091E0802F8A2109F490E09CAF4FA958AD97
:1059900069AD7AAD8BAD0E94FD20B394AA0CF3E003
:1059A000BF12E4CFF701319700831F5F143091F6E7
:1059B0000E94C90D772473943BC084EB9FE060CFB5
:1059C00080914703843029F10E94F3161092370327
:1059D00048E150E00FB6F894A895409360000FBEE0
:1059E0001093600083B7817F846083BF83B7816039
:1059F00083BF7894889583B78E7F83BF0FB6F89462
:105A0000A89580916000886180936000109260008A
:105A10000FBE0E944A1AEEE5F2E08191811159C54C
:105A20005FAD5E13FACF74CF981391CFB1DD712CB7
:105A3000009131031091320301151105F9F0E09046
:105A40001402F09015020E94351A8E199F09893CA4
:105A50009105A0F0C80199270C7F1127012B09F0AF
:105A6000E4C0B4E0880F991FBA95E1F78C589D4FB8
:105A7000DC0115962C9122FF0E94AB1BC0902102E5
:105A8000D09022020D2C000CEE08FF0810910C01A2
:105A9000212F30E0E1E2F2E081E090E03296281739
:105AA00039070CF0C5C080901D0290901E02A09096
:105AB0001F02B09020020E94C90D9B01AC01281961
:105AC00039094A095B0949015A0139EC83169104E5
:105AD000A104B1040CF180911C0290E0019669E1EF
